:1000000012C021C020C05EC01EC01DC01CC01BC0CD
:100010001AC019C018C018C016C015C014C013C02B
:1000200012C011C010C011241FBECFE5D4E0DEBF46
:10003000CDBF10E0A0E6B0E001C01D92A536B1072B
:10004000E1F7DBD018C1DCCF1F920F920FB60F92F1
:1000500011248F939F938CB190E0880F991F8E5F2E
:10006000910990936100809360009F918F910F9010
:100070000FBE0F901F901895806487B98AE18A950A
:10008000F1F700C0369A349BFECF349A84B195B113
:100090000895C09832E03A95F1F700C083B3C09A52
:1000A00092E09A95F1F700C023B32F708F7390E020
:1000B00030E4239F800D911D112408955D9BFECF98
:1000C0008CB908951F920F920FB60F921124EF92E0
:1000D000FF920F931F932F933F934F935F936F93D1
:1000E0007F938F939F93AF93BF93CF93DF93EF93C0
:1000F000FF9380916400882319F1809162009091B0
:10010000630097FD02C0C29A0CC0C2988091620041
:1001100090916300919581959109909363008093EC
:1001200062008091620090916300181619062CF409
:10013000019790936300809362008091620022C0D7
:10014000809160009091610097FD02C0C29A0CC03E
:10015000C29880916000909161009195819591097C
:1001600090936100809360008091600090916100A5
:10017000181619062CF40197909361008093600083
:10018000809160008ABD8FEF99DF83DFEC0186E00C
:1001900073DF8C017C01EE0CEF2CEE1CFF08F19458
:1001A0008E2D8CDF802F90E8E99E800D112486DF54
:1001B0008E01000F012F001F110B1195802F7EDF84
:1001C0008C2F90E8099F800D112478DFFF91EF912B
:1001D000DF91CF91BF91AF919F918F917F916F915F
:1001E0005F914F913F912F911F910F91FF90EF9051
:1001F0000F900FBE0F901F90189587E087BB84E08B
:1002000081BB81E88FBD89E08EBD8CE085BD8DEA24
:1002100083BD80E889BF1BB898E99AB996E890BD7C
:1002200010BC95E099B988B980E487B984E886B9AB
:100230007894C4E0D1E082B38C2782BB84990FC04C
:1002400087E01ADF0196F894969587959A95909392
:100250006300809362007894D093640002C010928F
:1002600064002FEF80E792E0215080409040E1F75A
:0A02700000C00000E0CFF894FFCFBB
:00000001FF
